{
  "_format": "hh-sol-artifact-1",
  "contractName": "Factory",
  "sourceName": "contracts/Factory.sol",
  "abi": [
    {
      "anonymous": false,
      "inputs": [
        {
          "indexed": false,
          "internalType": "string",
          "name": "name",
          "type": "string"
        },
        {
          "indexed": false,
          "internalType": "string",
          "name": "symbol",
          "type": "string"
        },
        {
          "indexed": false,
          "internalType": "address",
          "name": "instance",
          "type": "address"
        },
        {
          "indexed": false,
          "internalType": "uint256",
          "name": "length",
          "type": "uint256"
        }
      ],
      "name": "InstanceCreated",
      "type": "event"
    },
    {
      "anonymous": false,
      "inputs": [
        {
          "indexed": true,
          "internalType": "address",
          "name": "previousOwner",
          "type": "address"
        },
        {
          "indexed": true,
          "internalType": "address",
          "name": "newOwner",
          "type": "address"
        }
      ],
      "name": "OwnershipTransferred",
      "type": "event"
    },
    {
      "inputs": [
        {
          "internalType": "address",
          "name": "_signer",
          "type": "address"
        },
        {
          "internalType": "address",
          "name": "_platformAddress",
          "type": "address"
        },
        {
          "internalType": "uint8",
          "name": "_platformCommission",
          "type": "uint8"
        },
        {
          "internalType": "address",
          "name": "_storageContract",
          "type": "address"
        }
      ],
      "name": "initialize",
      "outputs": [],
      "stateMutability": "nonpayable",
      "type": "function"
    },
    {
      "inputs": [],
      "name": "owner",
      "outputs": [
        {
          "internalType": "address",
          "name": "",
          "type": "address"
        }
      ],
      "stateMutability": "view",
      "type": "function"
    },
    {
      "inputs": [],
      "name": "platformAddress",
      "outputs": [
        {
          "internalType": "address",
          "name": "",
          "type": "address"
        }
      ],
      "stateMutability": "view",
      "type": "function"
    },
    {
      "inputs": [],
      "name": "platformCommission",
      "outputs": [
        {
          "internalType": "uint8",
          "name": "",
          "type": "uint8"
        }
      ],
      "stateMutability": "view",
      "type": "function"
    },
    {
      "inputs": [
        {
          "internalType": "string",
          "name": "name",
          "type": "string"
        },
        {
          "internalType": "string",
          "name": "symbol",
          "type": "string"
        },
        {
          "internalType": "string",
          "name": "contractURI",
          "type": "string"
        },
        {
          "internalType": "address",
          "name": "_payingToken",
          "type": "address"
        },
        {
          "internalType": "uint256",
          "name": "_mintPrice",
          "type": "uint256"
        }
      ],
      "name": "produce",
      "outputs": [
        {
          "internalType": "address",
          "name": "instance",
          "type": "address"
        }
      ],
      "stateMutability": "nonpayable",
      "type": "function"
    },
    {
      "inputs": [],
      "name": "renounceOwnership",
      "outputs": [],
      "stateMutability": "nonpayable",
      "type": "function"
    },
    {
      "inputs": [
        {
          "internalType": "address",
          "name": "_platformAddress",
          "type": "address"
        }
      ],
      "name": "setPlatformAddress",
      "outputs": [],
      "stateMutability": "nonpayable",
      "type": "function"
    },
    {
      "inputs": [
        {
          "internalType": "uint8",
          "name": "_platformCommission",
          "type": "uint8"
        }
      ],
      "name": "setPlatformCommission",
      "outputs": [],
      "stateMutability": "nonpayable",
      "type": "function"
    },
    {
      "inputs": [
        {
          "internalType": "address",
          "name": "_signer",
          "type": "address"
        }
      ],
      "name": "setSigner",
      "outputs": [],
      "stateMutability": "nonpayable",
      "type": "function"
    },
    {
      "inputs": [],
      "name": "signerAddress",
      "outputs": [
        {
          "internalType": "address",
          "name": "",
          "type": "address"
        }
      ],
      "stateMutability": "view",
      "type": "function"
    },
    {
      "inputs": [],
      "name": "storageContract",
      "outputs": [
        {
          "internalType": "address",
          "name": "",
          "type": "address"
        }
      ],
      "stateMutability": "view",
      "type": "function"
    },
    {
      "inputs": [
        {
          "internalType": "address",
          "name": "newOwner",
          "type": "address"
        }
      ],
      "name": "transferOwnership",
      "outputs": [],
      "stateMutability": "nonpayable",
      "type": "function"
    }
  ],
  "bytecode": "0x608060405234801561001057600080fd5b5061349b806100206000396000f3fe608060405234801561001057600080fd5b50600436106100b45760003560e01c8063715018a611610071578063715018a6146101955780638da5cb5b1461019d578063cc03c342146101ae578063dbe55e56146101de578063f2fde38b146101f1578063ffea632b1461020457600080fd5b806311ce0267146100b9578063242494b8146100e95780635b7633d014610119578063694e91b81461012c5780636c19e78314610152578063710de54c14610182575b600080fd5b6066546100cc906001600160a01b031681565b6040516001600160a01b0390911681526020015b60405180910390f35b6101176100f736600461089a565b6067805460ff909216600160a01b0260ff60a01b19909216919091179055565b005b6067546100cc906001600160a01b031681565b60675461014090600160a01b900460ff1681565b60405160ff90911681526020016100e0565b6101176101603660046108d1565b606780546001600160a01b0319166001600160a01b0392909216919091179055565b6100cc610190366004610991565b610217565b61011761036b565b6033546001600160a01b03166100cc565b6101176101bc3660046108d1565b606580546001600160a01b0319166001600160a01b0392909216919091179055565b6065546100cc906001600160a01b031681565b6101176101ff3660046108d1565b6103a1565b610117610212366004610a34565b61043c565b60006102238686610556565b600061022f87876106d8565b90506001600160a01b0381166102965760405162461bcd60e51b815260206004820152602160248201527f466163746f72793a20494e5354414e43455f4352454154494f4e5f4641494c456044820152601160fa1b60648201526084015b60405180910390fd5b6066546040516301139ca760e01b815233916001600160a01b03848116926301139ca7926102d2921690899089908c908f908f90600401610aea565b600060405180830381600087803b1580156102ec57600080fd5b505af1158015610300573d6000803e3d6000fd5b505060405163f2fde38b60e01b81526001600160a01b0384811660048301528516925063f2fde38b9150602401600060405180830381600087803b15801561034757600080fd5b505af115801561035b573d6000803e3d6000fd5b50939a9950505050505050505050565b6033546001600160a01b031633146103955760405162461bcd60e51b815260040161028d90610b50565b61039f60006107cb565b565b6033546001600160a01b031633146103cb5760405162461bcd60e51b815260040161028d90610b50565b6001600160a01b0381166104305760405162461bcd60e51b815260206004820152602660248201527f4f776e61626c653a206e6577206f776e657220697320746865207a65726f206160448201526564647265737360d01b606482015260840161028d565b610439816107cb565b50565b600054610100900460ff166104575760005460ff161561045b565b303b155b6104be5760405162461bcd60e51b815260206004820152602e60248201527f496e697469616c697a61626c653a20636f6e747261637420697320616c72656160448201526d191e481a5b9a5d1a585b1a5e995960921b606482015260840161028d565b600054610100900460ff161580156104e0576000805461ffff19166101011790555b6104e861081d565b60678054606580546001600160a01b038881166001600160a01b03199283161790925560ff8716600160a01b026001600160a81b0319909316828a1617929092179092556066805492851692909116919091179055801561054f576000805461ff00191690555b5050505050565b815160000361059d5760405162461bcd60e51b8152602060048201526013602482015272466163746f72793a20454d505459204e414d4560681b604482015260640161028d565b80516000036105e65760405162461bcd60e51b8152602060048201526015602482015274119858dd1bdc9e4e8811535415164814d6535093d3605a1b604482015260640161028d565b6066546040516000916001600160a01b03169063624a23e09061060f9086908690602001610b85565b604051602081830303815290604052805190602001206040518263ffffffff1660e01b815260040161064391815260200190565b602060405180830381865afa158015610660573d6000803e3d6000fd5b505050506040513d601f19601f820116820180604052508101906106849190610bb4565b6001600160a01b0316146106d45760405162461bcd60e51b8152602060048201526017602482015276466163746f72793a20414c52454144595f45584953545360481b604482015260640161028d565b5050565b6000806040516106e790610877565b604051809103906000f080158015610703573d6000803e3d6000fd5b506066549092508291506000906001600160a01b031663cca12e5f833388886040518563ffffffff1660e01b81526004016107419493929190610bd1565b6020604051808303816000875af1158015610760573d6000803e3d6000fd5b505050506040513d601f19601f820116820180604052508101906107849190610c1a565b90507fd72ed290f33fdcda2caebbec226872d6e876f58141ddbf9c58624a34605da16c858585846040516107bb9493929190610c33565b60405180910390a1505092915050565b603380546001600160a01b038381166001600160a01b0319831681179093556040519116919082907f8be0079c531659141344cd1fd0a4f28419497f9722a3daafe3b4186f6b6457e090600090a35050565b600054610100900460ff166108445760405162461bcd60e51b815260040161028d90610c75565b61039f600054610100900460ff1661086e5760405162461bcd60e51b815260040161028d90610c75565b61039f336107cb565b6127ce80610cc183390190565b803560ff8116811461089557600080fd5b919050565b6000602082840312156108ac57600080fd5b6108b582610884565b9392505050565b6001600160a01b038116811461043957600080fd5b6000602082840312156108e357600080fd5b81356108b5816108bc565b634e487b7160e01b600052604160045260246000fd5b600082601f83011261091557600080fd5b813567ffffffffffffffff80821115610930576109306108ee565b604051601f8301601f19908116603f01168101908282118183101715610958576109586108ee565b8160405283815286602085880101111561097157600080fd5b836020870160208301376000602085830101528094505050505092915050565b600080600080600060a086880312156109a957600080fd5b853567ffffffffffffffff808211156109c157600080fd5b6109cd89838a01610904565b965060208801359150808211156109e357600080fd5b6109ef89838a01610904565b95506040880135915080821115610a0557600080fd5b50610a1288828901610904565b9350506060860135610a23816108bc565b949793965091946080013592915050565b60008060008060808587031215610a4a57600080fd5b8435610a55816108bc565b93506020850135610a65816108bc565b9250610a7360408601610884565b91506060850135610a83816108bc565b939692955090935050565b60005b83811015610aa9578181015183820152602001610a91565b83811115610ab8576000848401525b50505050565b60008151808452610ad6816020860160208601610a8e565b601f01601f19169290920160200192915050565b6001600160a01b038781168252861660208201526040810185905260c060608201819052600090610b1d90830186610abe565b8281036080840152610b2f8186610abe565b905082810360a0840152610b438185610abe565b9998505050505050505050565b6020808252818101527f4f776e61626c653a2063616c6c6572206973206e6f7420746865206f776e6572604082015260600190565b60008351610b97818460208801610a8e565b835190830190610bab818360208801610a8e565b01949350505050565b600060208284031215610bc657600080fd5b81516108b5816108bc565b6001600160a01b03858116825284166020820152608060408201819052600090610bfd90830185610abe565b8281036060840152610c0f8185610abe565b979650505050505050565b600060208284031215610c2c57600080fd5b5051919050565b608081526000610c466080830187610abe565b8281036020840152610c588187610abe565b6001600160a01b0395909516604084015250506060015292915050565b6020808252602b908201527f496e697469616c697a61626c653a20636f6e7472616374206973206e6f74206960408201526a6e697469616c697a696e6760a81b60608201526080019056fe608060405234801561001057600080fd5b50600160c9556127a9806100256000396000f3fe6080604052600436106101825760003560e01c8063715018a6116100d7578063c898526f11610085578063c898526f14610450578063d2b04fd61461047d578063e8a3d48514610490578063e985e9c5146104a5578063ed5dafcf146104c5578063f2fde38b146104e5578063f4a0a52814610505578063fa09e6301461052557600080fd5b8063715018a6146103895780638322fff21461039e5780638da5cb5b146103c657806395d89b41146103db578063a22cb465146103f0578063b88d4fde14610410578063c87b56dd1461043057600080fd5b806323b872dd1161013457806323b872dd1461029857806342842e0e146102b8578063555d6331146102d8578063579e2107146102f85780636352211e146103335780636817c76c1461035357806370a082311461036957600080fd5b806301139ca71461018757806301ffc9a7146101a957806306fdde03146101de578063081812fc146102005780630848818b14610238578063095ea7b31461025857806311ce026714610278575b600080fd5b34801561019357600080fd5b506101a76101a23660046120f3565b610545565b005b3480156101b557600080fd5b506101c96101c43660046121bf565b61066a565b60405190151581526020015b60405180910390f35b3480156101ea57600080fd5b506101f36106bc565b6040516101d59190612234565b34801561020c57600080fd5b5061022061021b366004612247565b61074e565b6040516001600160a01b0390911681526020016101d5565b34801561024457600080fd5b506101a7610253366004612260565b6107d6565b34801561026457600080fd5b506101a761027336600461227d565b610827565b34801561028457600080fd5b5060cb54610220906001600160a01b031681565b3480156102a457600080fd5b506101a76102b33660046122a9565b610937565b3480156102c457600080fd5b506101a76102d33660046122a9565b610968565b3480156102e457600080fd5b5060ca54610220906001600160a01b031681565b34801561030457600080fd5b50610325610313366004612260565b60cf6020526000908152604090205481565b6040519081526020016101d5565b34801561033f57600080fd5b5061022061034e366004612247565b610983565b34801561035f57600080fd5b5061032560cc5481565b34801561037557600080fd5b50610325610384366004612260565b6109fa565b34801561039557600080fd5b506101a7610a81565b3480156103aa57600080fd5b5061022073eeeeeeeeeeeeeeeeeeeeeeeeeeeeeeeeeeeeeeee81565b3480156103d257600080fd5b50610220610abc565b3480156103e757600080fd5b506101f3610acb565b3480156103fc57600080fd5b506101a761040b3660046122f8565b610ada565b34801561041c57600080fd5b506101a761042b366004612331565b610ae9565b34801561043c57600080fd5b506101f361044b366004612247565b610b21565b34801561045c57600080fd5b5061032561046b366004612260565b60d06020526000908152604090205481565b6101a761048b3660046123f3565b610bc3565b34801561049c57600080fd5b506101f3610f6b565b3480156104b157600080fd5b506101c96104c036600461247f565b610ff9565b3480156104d157600080fd5b506101f36104e0366004612247565b611027565b3480156104f157600080fd5b506101a7610500366004612260565b611040565b34801561051157600080fd5b506101a7610520366004612247565b6110e0565b34801561053157600080fd5b506101a7610540366004612260565b611114565b600054610100900460ff166105605760005460ff1615610564565b303b155b6105cc5760405162461bcd60e51b815260206004820152602e60248201527f496e697469616c697a61626c653a20636f6e747261637420697320616c72656160448201526d191e481a5b9a5d1a585b1a5e995960921b60648201526084015b60405180910390fd5b600054610100900460ff161580156105ee576000805461ffff19166101011790555b6105f88383611351565b610600611382565b60ca80546001600160a01b0319166001600160a01b03881617905560cc85905583516106339060cd906020870190611f1e565b5060cb80546001600160a01b0319166001600160a01b0389161790558015610661576000805461ff00191690555b50505050505050565b60006001600160e01b031982166380ac58cd60e01b148061069b57506001600160e01b03198216635b5e139f60e01b145b806106b657506301ffc9a760e01b6001600160e01b03198316145b92915050565b6060606580546106cb906124ad565b80601f01602080910402602001604051908101604052809291908181526020018280546106f7906124ad565b80156107445780601f1061071957610100808354040283529160200191610744565b820191906000526020600020905b81548152906001019060200180831161072757829003601f168201915b5050505050905090565b6000610759826113b1565b6107ba5760405162461bcd60e51b815260206004820152602c60248201527f4552433732313a20617070726f76656420717565727920666f72206e6f6e657860448201526b34b9ba32b73a103a37b5b2b760a11b60648201526084016105c3565b506000908152606960205260409020546001600160a01b031690565b336107df610abc565b6001600160a01b0316146108055760405162461bcd60e51b81526004016105c3906124e7565b60ca80546001600160a01b0319166001600160a01b0392909216919091179055565b600061083282610983565b9050806001600160a01b0316836001600160a01b03160361089f5760405162461bcd60e51b815260206004820152602160248201527f4552433732313a20617070726f76616c20746f2063757272656e74206f776e656044820152603960f91b60648201526084016105c3565b336001600160a01b03821614806108bb57506108bb8133610ff9565b6109285760405162461bcd60e51b815260206004820152603860248201527f4552433732313a20617070726f76652063616c6c6572206973206e6f74206f776044820152771b995c881b9bdc88185c1c1c9bdd995908199bdc88185b1b60421b60648201526084016105c3565b61093283836113ce565b505050565b610941338261143c565b61095d5760405162461bcd60e51b81526004016105c39061251c565b610932838383611506565b61093283838360405180602001604052806000815250610ae9565b6000818152606760205260408120546001600160a01b0316806106b65760405162461bcd60e51b815260206004820152602960248201527f4552433732313a206f776e657220717565727920666f72206e6f6e657869737460448201526832b73a103a37b5b2b760b91b60648201526084016105c3565b60006001600160a01b038216610a655760405162461bcd60e51b815260206004820152602a60248201527f4552433732313a2062616c616e636520717565727920666f7220746865207a65604482015269726f206164647265737360b01b60648201526084016105c3565b506001600160a01b031660009081526068602052604090205490565b33610a8a610abc565b6001600160a01b031614610ab05760405162461bcd60e51b81526004016105c3906124e7565b610aba60006116a2565b565b6097546001600160a01b031690565b6060606680546106cb906124ad565b610ae53383836116f4565b5050565b610af3338361143c565b610b0f5760405162461bcd60e51b81526004016105c39061251c565b610b1b848484846117be565b50505050565b600081815260ce60205260409020805460609190610b3e906124ad565b80601f0160208091040260200160405190810160405280929190818152602001828054610b6a906124ad565b8015610bb75780601f10610b8c57610100808354040283529160200191610bb7565b820191906000526020600020905b815481529060010190602001808311610b9a57829003601f168201915b50505050509050919050565b600260c95403610c155760405162461bcd60e51b815260206004820152601f60248201527f5265656e7472616e637947756172643a207265656e7472616e742063616c6c0060448201526064016105c3565b600260c981905550610c92868686868080601f01602080910402602001604051908101604052809392919081815260200183838082843760009201919091525050604080516020601f8a0181900481028201810190925288815292508891508790819084018382808284376000920191909152506117f192505050565b610cd25760405162461bcd60e51b8152602060048201526011602482015270496e76616c6964207369676e617475726560781b60448201526064016105c3565b610cdc8686611910565b600085815260ce60205260409020610cf5908585611fa2565b5060ca546000906001600160a01b031673eeeeeeeeeeeeeeeeeeeeeeeeeeeeeeeeeeeeeeed1901610d715760cc54341015610d6a5760405162461bcd60e51b8152602060048201526015602482015274139bdd08195b9bdd59da08195d1a195c881cd95b9d605a1b60448201526064016105c3565b5034610df2565b5060cc5460ca546040516323b872dd60e01b8152336004820152306024820152604481018390526001600160a01b03909116906323b872dd906064016020604051808303816000875af1158015610dcc573d6000803e3d6000fd5b505050506040513d601f19601f82011682018060405250810190610df0919061256d565b505b60ca5460cb546040805163c45a015560e01b815290516000936001600160a01b0390811693859391169163c45a0155916004808201926020929091908290030181865afa158015610e47573d6000803e3d6000fd5b505050506040513d601f19601f82011682018060405250810190610e6b919061258a565b6001600160a01b031663694e91b86040518163ffffffff1660e01b8152600401602060405180830381865afa158015610ea8573d6000803e3d6000fd5b505050506040513d601f19601f82011682018060405250810190610ecc91906125a7565b905060ff811615610f23576064610ee660ff8316866125e0565b610ef091906125ff565b6001600160a01b038316600090815260d06020526040812080549295508592909190610f1d908490612621565b90915550505b610f2d8385612639565b6001600160a01b038316600090815260cf602052604081208054909190610f55908490612621565b9091555050600160c95550505050505050505050565b60cd8054610f78906124ad565b80601f0160208091040260200160405190810160405280929190818152602001828054610fa4906124ad565b8015610ff15780601f10610fc657610100808354040283529160200191610ff1565b820191906000526020600020905b815481529060010190602001808311610fd457829003601f168201915b505050505081565b6001600160a01b039182166000908152606a6020908152604080832093909416825291909152205460ff1690565b60ce6020526000908152604090208054610f78906124ad565b33611049610abc565b6001600160a01b03161461106f5760405162461bcd60e51b81526004016105c3906124e7565b6001600160a01b0381166110d45760405162461bcd60e51b815260206004820152602660248201527f4f776e61626c653a206e6577206f776e657220697320746865207a65726f206160448201526564647265737360d01b60648201526084016105c3565b6110dd816116a2565b50565b336110e9610abc565b6001600160a01b03161461110f5760405162461bcd60e51b81526004016105c3906124e7565b60cc55565b600061111e610abc565b6001600160a01b0316330361114c57506001600160a01b038116600090815260cf6020526040902054611288565b60cb60009054906101000a90046001600160a01b03166001600160a01b031663c45a01556040518163ffffffff1660e01b8152600401602060405180830381865afa15801561119f573d6000803e3d6000fd5b505050506040513d601f19601f820116820180604052508101906111c3919061258a565b6001600160a01b031663dbe55e566040518163ffffffff1660e01b8152600401602060405180830381865afa158015611200573d6000803e3d6000fd5b505050506040513d601f19601f82011682018060405250810190611224919061258a565b6001600160a01b0316330361125257506001600160a01b038116600090815260d06020526040902054611288565b60405162461bcd60e51b815260206004820152600b60248201526a139bdd08185b1b1bddd95960aa1b60448201526064016105c3565b8015610ae55773eeeeeeeeeeeeeeeeeeeeeeeeeeeeeeeeeeeeeeed196001600160a01b038316016112e057604051339082156108fc029083906000818181858888f19350505050158015610932573d6000803e3d6000fd5b60405163a9059cbb60e01b8152336004820152602481018290526001600160a01b0383169063a9059cbb906044016020604051808303816000875af115801561132d573d6000803e3d6000fd5b505050506040513d601f19601f82011682018060405250810190610932919061256d565b600054610100900460ff166113785760405162461bcd60e51b81526004016105c390612650565b610ae58282611a43565b600054610100900460ff166113a95760405162461bcd60e51b81526004016105c390612650565b610aba611a91565b6000908152606760205260409020546001600160a01b0316151590565b600081815260696020526040902080546001600160a01b0319166001600160a01b038416908117909155819061140382610983565b6001600160a01b03167f8c5be1e5ebec7d5bd14f71427d1e84f3dd0314c0f7b2291e5b200ac8c7c3b92560405160405180910390a45050565b6000611447826113b1565b6114a85760405162461bcd60e51b815260206004820152602c60248201527f4552433732313a206f70657261746f7220717565727920666f72206e6f6e657860448201526b34b9ba32b73a103a37b5b2b760a11b60648201526084016105c3565b60006114b383610983565b9050806001600160a01b0316846001600160a01b031614806114ee5750836001600160a01b03166114e38461074e565b6001600160a01b0316145b806114fe57506114fe8185610ff9565b949350505050565b826001600160a01b031661151982610983565b6001600160a01b03161461157d5760405162461bcd60e51b815260206004820152602560248201527f4552433732313a207472616e736665722066726f6d20696e636f72726563742060448201526437bbb732b960d91b60648201526084016105c3565b6001600160a01b0382166115df5760405162461bcd60e51b8152602060048201526024808201527f4552433732313a207472616e7366657220746f20746865207a65726f206164646044820152637265737360e01b60648201526084016105c3565b6115ea6000826113ce565b6001600160a01b0383166000908152606860205260408120805460019290611613908490612639565b90915550506001600160a01b0382166000908152606860205260408120805460019290611641908490612621565b909155505060008181526067602052604080822080546001600160a01b0319166001600160a01b0386811691821790925591518493918716917fddf252ad1be2c89b69c2b068fc378daa952ba7f163c4a11628f55a4df523b3ef91a4505050565b609780546001600160a01b038381166001600160a01b0319831681179093556040519116919082907f8be0079c531659141344cd1fd0a4f28419497f9722a3daafe3b4186f6b6457e090600090a35050565b816001600160a01b0316836001600160a01b0316036117515760405162461bcd60e51b815260206004820152601960248201527822a9219b99189d1030b8383937bb32903a379031b0b63632b960391b60448201526064016105c3565b6001600160a01b038381166000818152606a6020908152604080832094871680845294825291829020805460ff191686151590811790915591519182527f17307eab39ab6107e8899845ad3d59bd9653f200f220920489ca2b5937696c31910160405180910390a3505050565b6117c9848484611506565b6117d584848484611ac1565b610b1b5760405162461bcd60e51b81526004016105c39061269b565b60cb546040805163c45a015560e01b815290516000926001600160a01b03169163c45a01559160048083019260209291908290030181865afa15801561183b573d6000803e3d6000fd5b505050506040513d601f19601f8201168201806040525081019061185f919061258a565b6001600160a01b0316635b7633d06040518163ffffffff1660e01b8152600401602060405180830381865afa15801561189c573d6000803e3d6000fd5b505050506040513d601f19601f820116820180604052508101906118c0919061258a565b6001600160a01b03166118fd8686866040516020016118e1939291906126ed565b6040516020818303038152906040528051906020012084611bbf565b6001600160a01b03161495945050505050565b6001600160a01b0382166119665760405162461bcd60e51b815260206004820181905260248201527f4552433732313a206d696e7420746f20746865207a65726f206164647265737360448201526064016105c3565b61196f816113b1565b156119bc5760405162461bcd60e51b815260206004820152601c60248201527f4552433732313a20746f6b656e20616c7265616479206d696e7465640000000060448201526064016105c3565b6001600160a01b03821660009081526068602052604081208054600192906119e5908490612621565b909155505060008181526067602052604080822080546001600160a01b0319166001600160a01b03861690811790915590518392907fddf252ad1be2c89b69c2b068fc378daa952ba7f163c4a11628f55a4df523b3ef908290a45050565b600054610100900460ff16611a6a5760405162461bcd60e51b81526004016105c390612650565b8151611a7d906065906020850190611f1e565b508051610932906066906020840190611f1e565b600054610100900460ff16611ab85760405162461bcd60e51b81526004016105c390612650565b610aba336116a2565b60006001600160a01b0384163b15611bb757604051630a85bd0160e11b81526001600160a01b0385169063150b7a0290611b0590339089908890889060040161272c565b6020604051808303816000875af1925050508015611b40575060408051601f3d908101601f19168201909252611b3d91810190612769565b60015b611b9d573d808015611b6e576040519150601f19603f3d011682016040523d82523d6000602084013e611b73565b606091505b508051600003611b955760405162461bcd60e51b81526004016105c39061269b565b805181602001fd5b6001600160e01b031916630a85bd0160e11b1490506114fe565b5060016114fe565b6000806000611bce8585611be3565b91509150611bdb81611c51565b509392505050565b6000808251604103611c195760208301516040840151606085015160001a611c0d87828585611e02565b94509450505050611c4a565b8251604003611c425760208301516040840151611c37868383611ee5565b935093505050611c4a565b506000905060025b9250929050565b6000816004811115611c6557611c65612786565b03611c6d5750565b6001816004811115611c8157611c81612786565b03611cc95760405162461bcd60e51b815260206004820152601860248201527745434453413a20696e76616c6964207369676e617475726560401b60448201526064016105c3565b6002816004811115611cdd57611cdd612786565b03611d2a5760405162461bcd60e51b815260206004820152601f60248201527f45434453413a20696e76616c6964207369676e6174757265206c656e6774680060448201526064016105c3565b6003816004811115611d3e57611d3e612786565b03611d965760405162461bcd60e51b815260206004820152602260248201527f45434453413a20696e76616c6964207369676e6174757265202773272076616c604482015261756560f01b60648201526084016105c3565b6004816004811115611daa57611daa612786565b036110dd5760405162461bcd60e51b815260206004820152602260248201527f45434453413a20696e76616c6964207369676e6174757265202776272076616c604482015261756560f01b60648201526084016105c3565b6000806fa2a8918ca85bafe22016d0b997e4df60600160ff1b03831115611e2f5750600090506003611edc565b8460ff16601b14158015611e4757508460ff16601c14155b15611e585750600090506004611edc565b6040805160008082526020820180845289905260ff881692820192909252606081018690526080810185905260019060a0016020604051602081039080840390855afa158015611eac573d6000803e3d6000fd5b5050604051601f1901519150506001600160a01b038116611ed557600060019250925050611edc565b9150600090505b94509492505050565b6000806001600160ff1b03831681611f0260ff86901c601b612621565b9050611f1087828885611e02565b935093505050935093915050565b828054611f2a906124ad565b90600052602060002090601f016020900481019282611f4c5760008555611f92565b82601f10611f6557805160ff1916838001178555611f92565b82800160010185558215611f92579182015b82811115611f92578251825591602001919060010190611f77565b50611f9e929150612016565b5090565b828054611fae906124ad565b90600052602060002090601f016020900481019282611fd05760008555611f92565b82601f10611fe95782800160ff19823516178555611f92565b82800160010185558215611f92579182015b82811115611f92578235825591602001919060010190611ffb565b5b80821115611f9e5760008155600101612017565b6001600160a01b03811681146110dd57600080fd5b634e487b7160e01b600052604160045260246000fd5b600067ffffffffffffffff8084111561207157612071612040565b604051601f8501601f19908116603f0116810190828211818310171561209957612099612040565b816040528093508581528686860111156120b257600080fd5b858560208301376000602087830101525050509392505050565b600082601f8301126120dd57600080fd5b6120ec83833560208501612056565b9392505050565b60008060008060008060c0878903121561210c57600080fd5b86356121178161202b565b955060208701356121278161202b565b945060408701359350606087013567ffffffffffffffff8082111561214b57600080fd5b6121578a838b016120cc565b9450608089013591508082111561216d57600080fd5b6121798a838b016120cc565b935060a089013591508082111561218f57600080fd5b5061219c89828a016120cc565b9150509295509295509295565b6001600160e01b0319811681146110dd57600080fd5b6000602082840312156121d157600080fd5b81356120ec816121a9565b60005b838110156121f75781810151838201526020016121df565b83811115610b1b5750506000910152565b600081518084526122208160208601602086016121dc565b601f01601f19169290920160200192915050565b6020815260006120ec6020830184612208565b60006020828403121561225957600080fd5b5035919050565b60006020828403121561227257600080fd5b81356120ec8161202b565b6000806040838503121561229057600080fd5b823561229b8161202b565b946020939093013593505050565b6000806000606084860312156122be57600080fd5b83356122c98161202b565b925060208401356122d98161202b565b929592945050506040919091013590565b80151581146110dd57600080fd5b6000806040838503121561230b57600080fd5b82356123168161202b565b91506020830135612326816122ea565b809150509250929050565b6000806000806080858703121561234757600080fd5b84356123528161202b565b935060208501356123628161202b565b925060408501359150606085013567ffffffffffffffff81111561238557600080fd5b8501601f8101871361239657600080fd5b6123a587823560208401612056565b91505092959194509250565b60008083601f8401126123c357600080fd5b50813567ffffffffffffffff8111156123db57600080fd5b602083019150836020828501011115611c4a57600080fd5b6000806000806000806080878903121561240c57600080fd5b86356124178161202b565b955060208701359450604087013567ffffffffffffffff8082111561243b57600080fd5b6124478a838b016123b1565b9096509450606089013591508082111561246057600080fd5b5061246d89828a016123b1565b979a9699509497509295939492505050565b6000806040838503121561249257600080fd5b823561249d8161202b565b915060208301356123268161202b565b600181811c908216806124c157607f821691505b6020821081036124e157634e487b7160e01b600052602260045260246000fd5b50919050565b6020808252818101527f4f776e61626c653a2063616c6c6572206973206e6f7420746865206f776e6572604082015260600190565b60208082526031908201527f4552433732313a207472616e736665722063616c6c6572206973206e6f74206f6040820152701ddb995c881b9bdc88185c1c1c9bdd9959607a1b606082015260800190565b60006020828403121561257f57600080fd5b81516120ec816122ea565b60006020828403121561259c57600080fd5b81516120ec8161202b565b6000602082840312156125b957600080fd5b815160ff811681146120ec57600080fd5b634e487b7160e01b600052601160045260246000fd5b60008160001904831182151516156125fa576125fa6125ca565b500290565b60008261261c57634e487b7160e01b600052601260045260246000fd5b500490565b60008219821115612634576126346125ca565b500190565b60008282101561264b5761264b6125ca565b500390565b6020808252602b908201527f496e697469616c697a61626c653a20636f6e7472616374206973206e6f74206960408201526a6e697469616c697a696e6760a81b606082015260800190565b60208082526032908201527f4552433732313a207472616e7366657220746f206e6f6e20455243373231526560408201527131b2b4bb32b91034b6b83632b6b2b73a32b960711b606082015260800190565b6bffffffffffffffffffffffff198460601b1681528260148201526000825161271d8160348501602087016121dc565b91909101603401949350505050565b6001600160a01b038581168252841660208201526040810183905260806060820181905260009061275f90830184612208565b9695505050505050565b60006020828403121561277b57600080fd5b81516120ec816121a9565b634e487b7160e01b600052602160045260246000fdfea164736f6c634300080d000aa164736f6c634300080d000a",
  "linkReferences": {},
  "deployedLinkReferences": {}
}