{
  "_format": "hh-sol-artifact-1",
  "contractName": "StorageContract",
  "sourceName": "contracts/StorageContract.sol",
  "abi": [
    {
      "anonymous": false,
      "inputs": [
        {
          "indexed": true,
          "internalType": "address",
          "name": "previousOwner",
          "type": "address"
        },
        {
          "indexed": true,
          "internalType": "address",
          "name": "newOwner",
          "type": "address"
        }
      ],
      "name": "OwnershipTransferred",
      "type": "event"
    },
    {
      "inputs": [
        {
          "internalType": "address",
          "name": "instanceAddress",
          "type": "address"
        },
        {
          "internalType": "address",
          "name": "creator",
          "type": "address"
        },
        {
          "internalType": "string",
          "name": "name",
          "type": "string"
        },
        {
          "internalType": "string",
          "name": "symbol",
          "type": "string"
        }
      ],
      "name": "addInstance",
      "outputs": [
        {
          "internalType": "uint256",
          "name": "",
          "type": "uint256"
        }
      ],
      "stateMutability": "nonpayable",
      "type": "function"
    },
    {
      "inputs": [],
      "name": "factory",
      "outputs": [
        {
          "internalType": "address",
          "name": "",
          "type": "address"
        }
      ],
      "stateMutability": "view",
      "type": "function"
    },
    {
      "inputs": [
        {
          "internalType": "bytes32",
          "name": "",
          "type": "bytes32"
        }
      ],
      "name": "getInstance",
      "outputs": [
        {
          "internalType": "address",
          "name": "",
          "type": "address"
        }
      ],
      "stateMutability": "view",
      "type": "function"
    },
    {
      "inputs": [
        {
          "internalType": "uint256",
          "name": "instanceId",
          "type": "uint256"
        }
      ],
      "name": "getInstanceInfo",
      "outputs": [
        {
          "components": [
            {
              "internalType": "string",
              "name": "name",
              "type": "string"
            },
            {
              "internalType": "string",
              "name": "symbol",
              "type": "string"
            },
            {
              "internalType": "address",
              "name": "creator",
              "type": "address"
            }
          ],
          "internalType": "struct StorageContract.InstanceInfo",
          "name": "",
          "type": "tuple"
        }
      ],
      "stateMutability": "view",
      "type": "function"
    },
    {
      "inputs": [
        {
          "internalType": "uint256",
          "name": "",
          "type": "uint256"
        }
      ],
      "name": "instances",
      "outputs": [
        {
          "internalType": "address",
          "name": "",
          "type": "address"
        }
      ],
      "stateMutability": "view",
      "type": "function"
    },
    {
      "inputs": [],
      "name": "instancesCount",
      "outputs": [
        {
          "internalType": "uint256",
          "name": "",
          "type": "uint256"
        }
      ],
      "stateMutability": "view",
      "type": "function"
    },
    {
      "inputs": [],
      "name": "owner",
      "outputs": [
        {
          "internalType": "address",
          "name": "",
          "type": "address"
        }
      ],
      "stateMutability": "view",
      "type": "function"
    },
    {
      "inputs": [],
      "name": "renounceOwnership",
      "outputs": [],
      "stateMutability": "nonpayable",
      "type": "function"
    },
    {
      "inputs": [
        {
          "internalType": "address",
          "name": "_factory",
          "type": "address"
        }
      ],
      "name": "setFactory",
      "outputs": [],
      "stateMutability": "nonpayable",
      "type": "function"
    },
    {
      "inputs": [
        {
          "internalType": "address",
          "name": "newOwner",
          "type": "address"
        }
      ],
      "name": "transferOwnership",
      "outputs": [],
      "stateMutability": "nonpayable",
      "type": "function"
    }
  ],
  "bytecode": "0x608060405234801561001057600080fd5b5061001a3361001f565b61006f565b600080546001600160a01b038381166001600160a01b0319831681178455604051919092169283917f8be0079c531659141344cd1fd0a4f28419497f9722a3daafe3b4186f6b6457e09190a35050565b6109dc8061007e6000396000f3fe608060405234801561001057600080fd5b506004361061009e5760003560e01c80638da5cb5b116100665780638da5cb5b1461013c578063a2f7b3a51461014d578063c45a015514610160578063cca12e5f14610173578063f2fde38b1461018657600080fd5b80630d0cd812146100a3578063552f75a0146100cc5780635bb47808146100de578063624a23e0146100f3578063715018a614610134575b600080fd5b6100b66100b13660046106e5565b610199565b6040516100c3919061075a565b60405180910390f35b6004545b6040519081526020016100c3565b6100f16100ec3660046107d1565b61033b565b005b61011c6101013660046106e5565b6002602052600090815260409020546001600160a01b031681565b6040516001600160a01b0390911681526020016100c3565b6100f1610390565b6000546001600160a01b031661011c565b61011c61015b3660046106e5565b6103c6565b60015461011c906001600160a01b031681565b6100d0610181366004610896565b6103f0565b6100f16101943660046107d1565b610561565b604080516060808201835280825260208201526000918101919091526000600483815481106101ca576101ca61091b565b60009182526020808320909101546001600160a01b031680835260039091526040918290208251606081019093528054919350908290829061020b90610931565b80601f016020809104026020016040519081016040528092919081815260200182805461023790610931565b80156102845780601f1061025957610100808354040283529160200191610284565b820191906000526020600020905b81548152906001019060200180831161026757829003601f168201915b5050505050815260200160018201805461029d90610931565b80601f01602080910402602001604051908101604052809291908181526020018280546102c990610931565b80156103165780601f106102eb57610100808354040283529160200191610316565b820191906000526020600020905b8154815290600101906020018083116102f957829003601f168201915b5050509183525050600291909101546001600160a01b03166020909101529392505050565b6000546001600160a01b0316331461036e5760405162461bcd60e51b81526004016103659061096b565b60405180910390fd5b600180546001600160a01b0319166001600160a01b0392909216919091179055565b6000546001600160a01b031633146103ba5760405162461bcd60e51b81526004016103659061096b565b6103c460006105fc565b565b600481815481106103d657600080fd5b6000918252602090912001546001600160a01b0316905081565b6001546000906001600160a01b0316336001600160a01b0316146104455760405162461bcd60e51b815260206004820152600c60248201526b6f6e6c7920666163746f727960a01b6044820152606401610365565b8460026000858560405160200161045d9291906109a0565b60408051601f198184030181529181528151602092830120835282820193909352908201600090812080546001600160a01b039586166001600160a01b03199182161790915560048054600181019091557f8a35acfbc15ff81a39ae7d344fd709f28e8600b4aa8c65c6b64bfe7fe36bd19b0180548b8716921682179055835160608101855288815280840188905294891685850152815260038252919091208251805191926105129284929091019061064c565b50602082810151805161052b926001850192019061064c565b5060409190910151600290910180546001600160a01b0319166001600160a01b0390921691909117905550506004549392505050565b6000546001600160a01b0316331461058b5760405162461bcd60e51b81526004016103659061096b565b6001600160a01b0381166105f05760405162461bcd60e51b815260206004820152602660248201527f4f776e61626c653a206e6577206f776e657220697320746865207a65726f206160448201526564647265737360d01b6064820152608401610365565b6105f9816105fc565b50565b600080546001600160a01b038381166001600160a01b0319831681178455604051919092169283917f8be0079c531659141344cd1fd0a4f28419497f9722a3daafe3b4186f6b6457e09190a35050565b82805461065890610931565b90600052602060002090601f01602090048101928261067a57600085556106c0565b82601f1061069357805160ff19168380011785556106c0565b828001600101855582156106c0579182015b828111156106c05782518255916020019190600101906106a5565b506106cc9291506106d0565b5090565b5b808211156106cc57600081556001016106d1565b6000602082840312156106f757600080fd5b5035919050565b60005b83811015610719578181015183820152602001610701565b83811115610728576000848401525b50505050565b600081518084526107468160208601602086016106fe565b601f01601f19169290920160200192915050565b602081526000825160606020840152610776608084018261072e565b90506020840151601f19848303016040850152610793828261072e565b604095909501516001600160a01b031660609490940193909352509192915050565b80356001600160a01b03811681146107cc57600080fd5b919050565b6000602082840312156107e357600080fd5b6107ec826107b5565b9392505050565b634e487b7160e01b600052604160045260246000fd5b600082601f83011261081a57600080fd5b813567ffffffffffffffff80821115610835576108356107f3565b604051601f8301601f19908116603f0116810190828211818310171561085d5761085d6107f3565b8160405283815286602085880101111561087657600080fd5b836020870160208301376000602085830101528094505050505092915050565b600080600080608085870312156108ac57600080fd5b6108b5856107b5565b93506108c3602086016107b5565b9250604085013567ffffffffffffffff808211156108e057600080fd5b6108ec88838901610809565b9350606087013591508082111561090257600080fd5b5061090f87828801610809565b91505092959194509250565b634e487b7160e01b600052603260045260246000fd5b600181811c9082168061094557607f821691505b60208210810361096557634e487b7160e01b600052602260045260246000fd5b50919050565b6020808252818101527f4f776e61626c653a2063616c6c6572206973206e6f7420746865206f776e6572604082015260600190565b600083516109b28184602088016106fe565b8351908301906109c68183602088016106fe565b0194935050505056fea164736f6c634300080d000a",
  "linkReferences": {},
  "deployedLinkReferences": {}
}